:1000000028C1000047C1000045C1000043C10000F5
:1000100041C100003FC100003DC100003BC10000E4
:1000200039C1000037C1000035C1000033C10000F4
:1000300031C100002FC100000C9468090C9495098F
:100040000C94C2090C94EF090C941C0A0C94490AF4
:100050000C94760A0C94A30A0C94D00A0C94FD0A12
:1000600019C1000017C1000015C1000013C1000034
:1000700011C100000FC100000DC100000BC1000044
:1000800009C1000007C100000C94A11A0C94421B86
:1000900001C10000FFC00000FDC00000FBC0000067
:1000A000F9C00000F7C00000F5C00000F3C0000078
:1000B000F1C00000EFC00000EDC000000C94EC0C9B
:1000C0000C94190D0C94460D0C94730D0C94A00D0A
:1000D0000C94CD0D0C94FA0D0C94270E0C94540E28
:1000E0000C94810ED7C00000D5C00000D3C0000022
:1000F000D1C00000CFC00000CDC00000CBC00000C8
:10010000C9C00000C7C00000C5C00000C3C00000D7
:10011000C1C00000BFC00000BDC00000BBC00000E7
:10012000B9C00000B7C00000B5C00000B3C00000F7
:10013000B1C000000C942A0B0C94570B0C94840B48
:100140000C94B10B0C94DE0B0C940B0C0C94380C2F
:100150000C94650C0C94920C0C94BF0C9BC000008A
:1001600099C0000097C0000095C0000093C0000037
:1001700091C000008FC000008DC000008BC0000047
:1001800089C0000087C0000085C0000083C0000057
:1001900081C000007FC000007DC000007BC0000067
:1001A00079C0000077C0000075C0000073C0000077
:1001B0000C94AE0E0C94DB0E0C94080F0C94350FBF
:1001C0000C94620F0C948F0F65C0000063C0000098
:1001D00061C000005FC000005DC000005BC00000A7
:1001E00059C0000057C0000055C0000053C00000B7
:1001F00051C000000C944F160C9403175C115F1152
:100200006211651168116B116E116364696E6F7014
:10021000737578585B004E414E494E495459494ECA
:1002200046CDCCCC3D0AD7233C17B7D13877CC2B61
:10023000329595E6241FB14F0A000020410000C806
:100240004200401C4620BCBE4CCA1B0E5AAEC59D87
:10025000740011241FBECFEFCDBFDFE5DEBF00E08D
:100260000CBF10E2A0E0B0E2E8ECFDE400E00BBF60
:1002700002C007900D92A03EB107D9F727E2A0EE89
:10028000B0E201C01D92A13CB207E1F70E94A8199B
:100290000C94E226B5CE0F931F93CF93DF9300D03B
:1002A0001F92CDB7DEB764E081E490E00E94580968
:1002B0006CE170E082E00E945E098A836DE170E08B
:1002C00082E0FCD7898389819A81019621F480E4B8
:1002D00093E289839A8389819A818B839C83E0E668
:1002E000F0E082838C8183839FB7F894E0E5F0E0AF
:1002F0008081826080839FBF818181FFFDCF9FB716
:10030000F89400E510E0D80116968C911697897F35
:1003100016968C931697E0E6F0E080E885838BEBE9
:10032000868316968C911697846016968C9380819E
:10033000816080839FBF61E080E490E0B9D79FB780
:10034000F894F80180818E7F80839FBF2496CDBF73
:10035000DEBFDF91CF911F910F9108959FB7F89461
:10036000E82FF0E0E059FF4F6095808168236083BB
:100370009FBF0895863011F060E001C068E1809170
:10038000510081FD26C09FB7F894E0E5F0E0808140
:10039000826080839FBF818181FFFDCF9FB7F894EA
:1003A000A0E5B0E016968C911697897F16968C93EF
:1003B0001697E0E6F0E080E885838BEB868316965F
:1003C0008C911697846016968C93808181608083CF
:1003D0009FBF636084E490E06BD760E480E0BECFB1
:1003E0000895CF93DF93FC01709620E030E0C62F94
:1003F000D0E0DE01022E02C0B595A7950A94E2F77F
:10040000A0FD50832F5F3F4F31962830310589F78B
:1004100040FF0AC041FF03C0FC01658302C0FC012C
:100420006683FC01618302C0FC016283DF91CF918E
:1004300008958091F82581508093F825089580E0F3
:10044000089580E008958091A1278823CCF48076D8
:100450008032B9F58091A2278132A9F58091A72732
:100460009091A827079789F5E1EAF7E286E096E2FE
:100470008087918787E090E08287938781E0089565
:100480008076803221F58091A227803221F082325D
:1004900001F180E008958091A7279091A827079700
:1004A000D1F4E1EAF7E28DE692E08487958786E071
:1004B00096E28087918787E090E08287938781E04A
:1004C000089580E0089580E0089580E0089580E038
:1004D000089581E0089580E0089508951092F82528
:1004E0001092042610920526EAEFF5E281EA808355
:1004F00080E28183128213821482158282E090E06E
:100500008683978310861186E6E0F6E280E092EC1F
:10051000A1E0B0E080839183A283B383148215822B
:1005200088E0868369D6882329F09091F8259F5F1B
:100530009093F8250895FF920F931F93CF93DF9325
:100540008091E52081119BC00E941A14882351F0EC
:10055000C091E620D091E7200E942714C817D90740
:1005600059F48DC0C091E620D091E7200E9422145A
:10057000C817D90709F483C0DFB7F894C091E82001
:10058000EC2FF0E0EE0FFF1FE751FF4D80819181CE
:10059000892B09F58091E2209091E32001968093C8
:1005A000E2209093E3200E941A14811107C08091E9
:1005B000E2209091E3208436910558F00E941A14AD
:1005C000882349F08091E2209091E320803293408B
:1005D00010F4DFBF54C01092E2201092E32080910B
:1005E000E420811106C081E0C11180E08093E82001
:1005F00004C081E0C11180E0C82F81E08093E52034
:10060000DFBFD0E0FE01EE0FFF1FE751FF4DFF24DB
:10061000F394808191818034914009F4F12CFF2082
:1006200091F00E941A14882339F00E9427148093B5
:10063000E6209093E7200BC00E9422148093E620CE
:100640009093E72004C01092E6201092E720FE016C
:10065000EE0FFF1FE751FF4D2081318180E491E0D3
:10066000C89FA001C99F500DD89F500D1124425121
:100670005F4D05E413E06F2D81E80E940915DF91BD
:10068000CF911F910F91FF900895811115C0209176
:10069000E82081E090E0222311F080E090E0880FD4
:1006A000991FFC01E751FF4D108211821092E42046
:1006B0001092E52080E03FCF089580E03CCF089580
:1006C0008091F72581508093F7258091F72598D563
:1006D0001092F62508954FB7F89420916F2330912A
:1006E0007023E0917123F0E0EE0FFF1FEE58FC4DF8
:1006F000808191814FBF821B930B0895ECDF21E035
:10070000892B09F420E0822F08950F931F93CF9334
:10071000DF939FB7F8942091712380916E2381110C
:1007200010C060916F2370917023C22FD0E0FE0142
:10073000EE0FFF1FEE58FC4D408151816417750785
:1007400018F49FBF80E022C010926F231092702394
:1007500081E0211180E08093712381E080936E23FA
:100760009FBF80E0CBDF80E491E0C89FA001C99FDC
:10077000500DD89F500D11244A585C4D0DEF13E0D9
:1007800020E431E061E082E00E940915DF91CF9121
:100790001F910F9108951092F7251092E520109265
:1007A000E4201092E820E9EEF0E210821182128239
:1007B00013821092E6201092E72080E0BCDE1092B7
:1007C0006E2310927123E2E7F3E21082118212820B
:1007D000138210926F231092702380E096DF88239B
:1007E00059F09091F7259F5F9093F7259091F72509
:1007F000913011F49093F62508950F931F93811172
:1008000026C080917123E1E08111E0E0842F611521
:10081000710591F4F0E020E431E0E29FA001E39F54
:10082000500DF29F500D11244A585C4D0DEF13E00E
:1008300061E00E9409150BC0F0E0EE0FFF1FEE58BB
:10084000FC4D6083718310926E2380E05EDF1F9108
:100850000F910895EF92FF921F93CF93DF9311E0D2
:1008600080910C26893009F010E0A0E0B0E0C0E4EF
:10087000D1E06FB7F89420916F233091702380916D
:10088000712390E0FC01EE0FFF1FEE58FC4D4081FC
:1008900051816FBF2417350730F08091F625811103
:1008A000E8CF90E01EC08C9FF0018D9FF00D9C9FC3
:1008B000F00D1124E20FF31FEA58FC4D80817D01F9
:1008C000E82A2F5F3F4F20936F233093702380E0FF
:1008D0001CDF112321F0BE2DAA2710E0CACF8E2DD8
:1008E0009F2DDF91CF911F91FF90EF90089580E0B1
:1008F000B1CF08959FB7F8948091E820E82FF0E0F9
:10090000EE0FFF1FE751FF4D20813181203441E080
:10091000340789F44091E52041110DC04091E42055
:10092000411109C021E02093E420811120E02093AF
:10093000E82020E030E09FBF80E491E0821B930B31
:100940000895D8DF21E0892B09F420E0822F089553
:10095000FF920F931F93CF93DF93F62E172F01E093
:1009600080910C26893009F000E0C0E4D1E080E0FD
:10097000E8DF811107C08091F6258111F8CF80E072
:1009800090E028C04FB7F8942091E82030E0F901BA
:10099000EE0FFF1FE751FF4D80819181BC016F5F1A
:1009A0007F4F608371832C9FF0012D9FF00D3C9F42
:1009B000F00D11248E0F9F1FFC01E251FF4DF082BC
:1009C0004FBF002329F0F12E110F110B00E0CFCF04
:1009D00081E090E0DF91CF911F910F91FF900895FA
:1009E000BC0180E0B5CF0895E0911226F091132666
:1009F0000190F081E02D228133812E0F3F1FFC01F9
:100A00004081E40FF11DE217F307B8F481818430CF
:100A1000B9F0861309C005C081818430A1F0861326
:100A200003C08E2F9F2F08958081E80FF11DE217DC
:100A3000F30790F380E090E0089580E090E008955F
:100A400080E090E0089580E090E008958091A327F1
:100A50008F770C941C14089590911426992381F19A
:100A6000E0911226F09113260190F081E02D9481FF
:100A7000891740F5E0931026F093112622813381E7
:100A80002E0F3F1FE217F307F8F49181943061F4C1
:100A90009281981309C09381961306C0E0931026A3
:100AA000F093112681E008959081E90FF11DE2177E
:100AB000F30758F3E0931026F093112680E0089591
:100AC00080E0089580E0089580E00895EF92FF921D
:100AD0001F93CF93DF93C82F60E0BEDF182F8823CA
:100AE00081F1A0911226B0911326EC2FF0E0EE0FC9
:100AF000FF1F12968D919C911397E80FF91FE080CC
:100B0000F180D7011696ED91FC9117971995682FF2
:100B10008C2FA2DF182F8823A1F0C0911026D0912E
:100B2000112665E0CE0160DFEC01892B21F08A817E
:100B30000E940C16F6CFD7011296ED91FC911397F7
:100B40001995812FDF91CF911F91FF90EF9008951C
:100B50001F93CF93DF93182F7FDF882341F1C0913C
:100B60001026D091112665E0CE013EDFEC01892BE5
:100B700049F04C815D816B818A810E943114811121
:100B8000F2CF15C0A0911226B0911326E12FF0E00C
:100B9000EE0FFF1F12968D919C911397E80FF91F8E
:100BA0000190F081E02D0190F081E02D1995DF9109
:100BB000CF911F9108950C94A5130895CF93809120
:100BC00014268823C1F0E0911226F091132601909B
:100BD000F081E02D8481882371F0C0E08C2F76DFD6
:100BE000CF5FE0911226F09113260190F081E02D65
:100BF0008481C81798F31092142681E090E08093C6
:100C0000182690931926CF910895CF93809114269A
:100C1000882349F1A0911226B0911326ED91FC9101
:100C2000119784818823F9F0C0E0EC2FF0E0EE0FFB
:100C3000FF1F12968D919C911397E80FF91F019059
:100C4000F081E02D0084F185E02D309709F01995B1
:100C5000CF5FA0911226B0911326ED91FC911197D0
:100C60008481C81710F3CF9108950F931F93CF93EA
:100C7000DF93E1EAF7E2128613861486158616865C
:100C80001786808188230CF068C22091A7273091B5
:100C9000A8272115310509F065C25BC28F7109F0E3
:100CA000AAC09091A227963081F0983009F498C09C
:100CB0009111A1C02230310509F0D4C162E070E089
:100CC00088E196E20E942A1452C28091A327909153
:100CD000A427292F332722303105B1F024F4213005
:100CE000310541F0B6C123303105F1F12F30310526
:100CF00061F1AFC180911A2090911B20DC016C91B1
:100D000070E00E942A145DC0E0911A20F0911B202F
:100D10002189821708F0A6C19927880F991F880F8B
:100D2000991FE0911C20F0911D20E80FF91F808190
:100D30009181FC01628173810E942A14E091A927AC
:100D4000F091AA2782E081833CC080911E2090917F
:100D50001F20009709F486C1DC0112966D917C91E9
:100D600013970E942A142DC099278130910579F09C
:100D700038F0029709F076C182E990E223E00AC0D8
:100D800064E070E080EA90E20E942A141AC086E9CA
:100D900090E229E0382FA0E8B0E2E82FF92F819106
:100DA00090E08D939D938E2F831B8217C0F3622F4B
:100DB000660F6E5F60937E2070E08EE790E20E9487
:100DC0002A14E1EAF7E2868197812285338582172A
:100DD000930708F0CCC18093AB279093AC27C7C191
:100DE0002130310509F03EC161E070E084E196E216
:100DF0000E942A14BCC18130E9F59091A2279A3053
:100E0000C9F52130310509F02DC1809114268823C0
:100E100009F428C1C091A527D091A62700911226D8
:100E200010911326D801ED91FC918481C81708F028
:100E300019C160E08C2F10DE882309F413C1CE01A4
:100E40009927880F991FD8011296ED91FC9113975D
:100E5000E80FF91F0190F081E02D86819781FC0158
:100E600019958093162661E070E086E196E20E9473
:100E70002A147DC1823009F0F5C08091A22781112A
:100E8000EAC02230310509F0EDC08091A5270E940B
:100E9000B91490E080930E2690930F2662E070E0E4
:100EA0008EE096E20E942A1462C18F7109F084C01C
:100EB0009091A227933009F4D0C018F49130A1F09A
:100EC0007BC0953019F0993039F176C08091A72711
:100ED0009091A827892B09F0C5C086E295E0809300
:100EE000AD279093AE2743C18091A7279091A82763
:100EF000892B09F0B7C08091A3279091A42701976F
:100F000009F0B0C080911826909119268D7F8093AA
:100F10001826909319262BC18091A7279091A82776
:100F2000892B09F09FC00E941F14882309F49AC0DE
:100F30002091A3273091A4273327E0911A20F09124
:100F40001B20818990E08217930708F48BC036DE5E
:100F50008091A3279091A42780931426882309F4D5
:100F600006C199278150904C880F991F880F991FAF
:100F7000E0911C20F0911D20E80FF91FE09312264C
:100F8000F09313260190F081E02D8481882309F4E9
:100F9000EEC0C0E060E08C2FDBDD882309F462C086
:100FA000CF5FE0911226F09113260190F081E02DA1
:100FB0008481C81778F3DBC08130E1F49091A227D7
:100FC0009B30C1F48091A7279091A827892B09F025
:100FD00049C080911426882309F444C0E1EAF7E26D
:100FE000C481D2818C2F72DD8823E1F16D2F8C2F8B
:100FF000AFDD36C08230B1F58091A227813019F083
:10100000833091F02CC08091A7279091A827892B3D
:1010100049F58091A3279091A427892B19F58091F8
:10102000A5270E94D4141CC08091A7279091A827BF
:10103000892BC1F48091A3279091A427892B91F447
:10104000C1EAD7E28C810E94C3158C810E942816C8
:1010500007C080E005C080E003C080E001C080E000
:10106000811186C08091A1278F71813071F58091A7
:101070001426882351F10091A5271091A627C0912D
:101080001226D0911326E881F98184810817E8F4AB
:1010900060E0802FE1DC8823C1F0F801FF27CF0159
:1010A000880F991FEA81FB81E80FF91FC081D18168
:1010B000EE81FF811995682F802FCEDC882329F0DF
:1010C000EC81FD811995811153C08091A1278F7109
:1010D000823009F040C0809114268823B1F1A0919C
:1010E0001226B0911326ED91FC91119784818823EB
:1010F00071F1C0E0EC2FF0E0EE0FFF1F12968D9122
:101100009C911397E80FF91F00811181D801169661
:10111000ED91FC9117971995682F8C2F9DDC8823F2
:1011200039F1D8011496ED91FC911597199581111B
:101130001FC0CF5FA0911226B0911326ED91FC91B4
:1011400011979481C917B0F213C080E011C080E0FC
:101150000FC080E00DC080E00BC0982F907609F0A2
:1011600081CFA3CE982F907609F07CCF97CD81E0E8
:10117000DF91CF911F910F910895CF93DF931F922D
:10118000CDB7DEB780919F279091A027E0919B2754
:10119000F0919C27BE016F5F7F4F19958981082EC2
:1011A000000C990B0F90DF91CF91089580911A2632
:1011B000882381F0862F082E000C990B11DC21E08A
:1011C00030E0892B11F020E030E088279927821B3E
:1011D000930B089580E090E00895CF93DF93809182
:1011E0001A26811103C0FB01108203C0EB017FDBD3
:1011F0008883DF91CF91089581E080931A26089526
:1012000010921A26089510929F271092A02786ED1B
:1012100098E080939D2790939E278DEE98E0809391
:101220009B2790939C27C7DC6DEB78E08BE199E0DE
:101230000C94C71D0895682F80919F279091A02737
:10124000E0919D27F0919E27199599231CF081E04C
:1012500090E008958FEF9FEF089543E050E061E044
:1012600080EE97E0BED843E050E062E080EE97E089
:10127000B8D843E050E060E180E696E0B2D841E0C3
:1012800050E460E280E696E0ACD840E05BE160E2EA
:1012900080E896E0A6D840E05BE162E080EA96E074
:1012A000A0D840E05BE164E080EA96E09AC8089547
:1012B0001BBEFC0128ED24BF608308954091CA0144
:1012C000E62FF72F8093CA0184914093CA010895B5
:1012D0001F920F920FB60F9211240BB60F922F93FD
:1012E0003F934F935F936F937F938F939F93AF93AE
:1012F000BF93EF93FF93E0916126F09162263097C0
:1013000009F01995FF91EF91BF91AF919F918F9146
:101310007F916F915F914F913F912F910F900BBEF5
:101320000F900FBE0F901F9018951F920F920FB63F
:101330000F9211240BB60F922F933F934F935F930D
:101340006F937F938F939F93AF93BF93EF93FF938D
:10135000E0915F26F0916026309709F01995FF9192
:10136000EF91BF91AF919F918F917F916F915F911D
:101370004F913F912F910F900BBE0F900FBE0F908A
:101380001F9018951F920F920FB60F9211240BB653
:101390000F922F933F934F935F936F937F938F930E
:1013A0009F93AF93BF93EF93FF93E0915D26F091EE
:1013B0005E26309709F01995FF91EF91BF91AF919B
:1013C0009F918F917F916F915F914F913F912F915D
:1013D0000F900BBE0F900FBE0F901F9018951F928D
:1013E0000F920FB60F9211240BB60F922F933F93CB
:1013F0004F935F936F937F938F939F93AF93BF931D
:10140000EF93FF93E0915B26F0915C26309709F013
:101410001995FF91EF91BF91AF919F918F917F911E
:101420006F915F914F913F912F910F900BBE0F9055
:101430000FBE0F901F9018951F920F920FB60F922C
:1014400011240BB60F922F933F934F935F936F939B
:101450007F938F939F93AF93BF93EF93FF93E0910D
:101460005926F0915A26309709F01995FF91EF917E
:10147000BF91AF919F918F917F916F915F914F91AC
:101480003F912F910F900BBE0F900FBE0F901F90AA
:1014900018951F920F920FB60F9211240BB60F9250
:1014A0002F933F934F935F936F937F938F939F936C
:1014B000AF93BF93EF93FF93E0915726F091582697
:1014C000309709F01995FF91EF91BF91AF919F91DE
:1014D0008F917F916F915F914F913F912F910F90DD
:1014E0000BBE0F900FBE0F901F9018951F920F927A
:1014F0000FB60F9211240BB60F922F933F934F9379
:101500005F936F937F938F939F93AF93BF93EF936B
:10151000FF93E0915526F0915626309709F01995E2
:10152000FF91EF91BF91AF919F918F917F916F91BB
:101530005F914F913F912F910F900BBE0F900FBE77
:101540000F901F9018951F920F920FB60F921124B3
:101550000BB60F922F933F934F935F936F937F93AD
:101560008F939F93AF93BF93EF93FF93E091532695
:10157000F0915426309709F01995FF91EF91BF91A2
:10158000AF919F918F917F916F915F914F913F911B
:101590002F910F900BBE0F900FBE0F901F901895BC
:1015A0001F920F920FB60F9211240BB60F922F932A
:1015B0003F934F935F936F937F938F939F93AF93DB
:1015C000BF93EF93FF93E0915126F091522630970D
:1015D00009F01995FF91EF91BF91AF919F918F9174
:1015E0007F916F915F914F913F912F910F900BBE23
:1015F0000F900FBE0F901F9018951F920F920FB66D
:101600000F9211240BB60F922F933F934F935F933A
:101610006F937F938F939F93AF93BF93EF93FF93BA
:10162000E0914F26F0915026309709F01995FF91DF
:10163000EF91BF91AF919F918F917F916F915F914A
:101640004F913F912F910F900BBE0F900FBE0F90B7
:101650001F9018951F920F920FB60F9211240BB680
:101660000F922F933F934F935F936F937F938F933B
:101670009F93AF93BF93EF93FF93E0914D26F0912B
:101680004E26309709F01995FF91EF91BF91AF91D8
:101690009F918F917F916F915F914F913F912F918A
:1016A0000F900BBE0F900FBE0F901F9018951F92BA
:1016B0000F920FB60F9211240BB60F922F933F93F8
:1016C0004F935F936F937F938F939F93AF93BF934A
:1016D000EF93FF93E0914B26F0914C26309709F061
:1016E0001995FF91EF91BF91AF919F918F917F914C
:1016F0006F915F914F913F912F910F900BBE0F9083
:101700000FBE0F901F9018951F920F920FB60F9259
:1017100011240BB60F922F933F934F935F936F93C8
:101720007F938F939F93AF93BF93EF93FF93E0913A
:101730004926F0914A26309709F01995FF91EF91CB
:10174000BF91AF919F918F917F916F915F914F91D9
:101750003F912F910F900BBE0F900FBE0F901F90D7
:1017600018951F920F920FB60F9211240BB60F927D
:101770002F933F934F935F936F937F938F939F9399
:10178000AF93BF93EF93FF93E0914726F0914826E4
:10179000309709F01995FF91EF91BF91AF919F910B
:1017A0008F917F916F915F914F913F912F910F900A
:1017B0000BBE0F900FBE0F901F9018951F920F92A7
:1017C0000FB60F9211240BB60F922F933F934F93A6
:1017D0005F936F937F938F939F93AF93BF93EF9399
:1017E000FF93E0914526F0914626309709F0199530
:1017F000FF91EF91BF91AF919F918F917F916F91E9
:101800005F914F913F912F910F900BBE0F900FBEA4
:101810000F901F9018951F920F920FB60F921124E0
:101820000BB60F922F933F934F935F936F937F93DA
:101830008F939F93AF93BF93EF93FF93E0914326D2
:10184000F0914426309709F01995FF91EF91BF91DF
:10185000AF919F918F917F916F915F914F913F9148
:101860002F910F900BBE0F900FBE0F901F901895E9
:101870001F920F920FB60F9211240BB60F922F9357
:101880003F934F935F936F937F938F939F93AF9308
:10189000BF93EF93FF93E0914126F091422630975A
:1018A00009F01995FF91EF91BF91AF919F918F91A1
:1018B0007F916F915F914F913F912F910F900BBE50
:1018C0000F900FBE0F901F9018951F920F920FB69A
:1018D0000F9211240BB60F922F933F934F935F9368
:1018E0006F937F938F939F93AF93BF93EF93FF93E8
:1018F000E0913F26F0914026309709F01995FF912D
:10190000EF91BF91AF919F918F917F916F915F9177
:101910004F913F912F910F900BBE0F900FBE0F90E4
:101920001F9018951F920F920FB60F9211240BB6AD
:101930000F922F933F934F935F936F937F938F9368
:101940009F93AF93BF93EF93FF93E0913D26F09168
:101950003E26309709F01995FF91EF91BF91AF9115
:101960009F918F917F916F915F914F913F912F91B7
:101970000F900BBE0F900FBE0F901F9018951F92E7
:101980000F920FB60F9211240BB60F922F933F9325
:101990004F935F936F937F938F939F93AF93BF9377
:1019A000EF93FF93E0913B26F0913C26309709F0AE
:1019B0001995FF91EF91BF91AF919F918F917F9179
:1019C0006F915F914F913F912F910F900BBE0F90B0
:1019D0000FBE0F901F9018951F920F920FB60F9287
:1019E00011240BB60F922F933F934F935F936F93F6
:1019F0007F938F939F93AF93BF93EF93FF93E09168
:101A00003926F0913A26309709F01995FF91EF9118
:101A1000BF91AF919F918F917F916F915F914F9106
:101A20003F912F910F900BBE0F900FBE0F901F9004
:101A300018951F920F920FB60F9211240BB60F92AA
:101A40002F933F934F935F936F937F938F939F93C6
:101A5000AF93BF93EF93FF93E0913726F091382631
:101A6000309709F01995FF91EF91BF91AF919F9138
:101A70008F917F916F915F914F913F912F910F9037
:101A80000BBE0F900FBE0F901F9018951F920F92D4
:101A90000FB60F9211240BB60F922F933F934F93D3
:101AA0005F936F937F938F939F93AF93BF93EF93C6
:101AB000FF93E0913526F0913626309709F019957D
:101AC000FF91EF91BF91AF919F918F917F916F9116
:101AD0005F914F913F912F910F900BBE0F900FBED2
:101AE0000F901F9018951F920F920FB60F9211240E
:101AF0000BB60F922F933F934F935F936F937F9308
:101B00008F939F93AF93BF93EF93FF93E09133260F
:101B1000F0913426309709F01995FF91EF91BF911C
:101B2000AF919F918F917F916F915F914F913F9175
:101B30002F910F900BBE0F900FBE0F901F90189516
:101B40001F920F920FB60F9211240BB60F922F9384
:101B50003F934F935F936F937F938F939F93AF9335
:101B6000BF93EF93FF93E0913126F09132263097A7
:101B700009F01995FF91EF91BF91AF919F918F91CE
:101B80007F916F915F914F913F912F910F900BBE7D
:101B90000F900FBE0F901F9018951F920F920FB6C7
:101BA0000F9211240BB60F922F933F934F935F9395
:101BB0006F937F938F939F93AF93BF93EF93FF9315
:101BC000E0912F26F0913026309709F01995FF917A
:101BD000EF91BF91AF919F918F917F916F915F91A5
:101BE0004F913F912F910F900BBE0F900FBE0F9012
:101BF0001F9018951F920F920FB60F9211240BB6DB
:101C00000F922F933F934F935F936F937F938F9395
:101C10009F93AF93BF93EF93FF93E0912D26F091A5
:101C20002E26309709F01995FF91EF91BF91AF9152
:101C30009F918F917F916F915F914F913F912F91E4
:101C40000F900BBE0F900FBE0F901F9018951F9214
:101C50000F920FB60F9211240BB60F922F933F9352
:101C60004F935F936F937F938F939F93AF93BF93A4
:101C7000EF93FF93E0912B26F0912C26309709F0FB
:101C80001995FF91EF91BF91AF919F918F917F91A6
:101C90006F915F914F913F912F910F900BBE0F90DD
:101CA0000FBE0F901F9018951F920F920FB60F92B4
:101CB00011240BB60F922F933F934F935F936F9323
:101CC0007F938F939F93AF93BF93EF93FF93E09195
:101CD0002926F0912A26309709F01995FF91EF9166
:101CE000BF91AF919F918F917F916F915F914F9134
:101CF0003F912F910F900BBE0F900FBE0F901F9032
:101D000018951F920F920FB60F9211240BB60F92D7
:101D10002F933F934F935F936F937F938F939F93F3
:101D2000AF93BF93EF93FF93E0912726F09128267E
:101D3000309709F01995FF91EF91BF91AF919F9165
:101D40008F917F916F915F914F913F912F910F9064
:101D50000BBE0F900FBE0F901F9018951F920F9201
:101D60000FB60F9211240BB60F922F933F934F9300
:101D70005F936F937F938F939F93AF93BF93EF93F3
:101D8000FF93E0912526F0912626309709F01995CA
:101D9000FF91EF91BF91AF919F918F917F916F9143
:101DA0005F914F913F912F910F900BBE0F900FBEFF
:101DB0000F901F9018951F920F920FB60F9211243B
:101DC0000BB60F922F933F934F935F936F937F9335
:101DD0008F939F93AF93BF93EF93FF93E09123264D
:101DE000F0912426309709F01995FF91EF91BF915A
:101DF000AF919F918F917F916F915F914F913F91A3
:101E00002F910F900BBE0F900FBE0F901F90189543
:101E10001F920F920FB60F9211240BB60F922F93B1
:101E20003F934F935F936F937F938F939F93AF9362
:101E3000BF93EF93FF93E0912126F09122263097F4
:101E400009F01995FF91EF91BF91AF919F918F91FB
:101E50007F916F915F914F913F912F910F900BBEAA
:101E60000F900FBE0F901F9018951F920F920FB6F4
:101E70000F9211240BB60F922F933F934F935F93C2
:101E80006F937F938F939F93AF93BF93EF93FF9342
:101E9000E0911F26F0912026309709F01995FF91C7
:101EA000EF91BF91AF919F918F917F916F915F91D2
:101EB0004F913F912F910F900BBE0F900FBE0F903F
:101EC0001F9018951F920F920FB60F9211240BB608
:101ED0000F922F933F934F935F936F937F938F93C3
:101EE0009F93AF93BF93EF93FF93E0911D26F091E3
:101EF0001E26309709F01995FF91EF91BF91AF9190
:101F00009F918F917F916F915F914F913F912F9111
:101F10000F900BBE0F900FBE0F901F9018951F9241
:101F20000F920FB60F9211240BB60F922F933F937F
:101F30004F935F936F937F938F939F93AF93BF93D1
:101F4000EF93FF93E0911B26F0911C26309709F048
:101F50001995FF91EF91BF91AF919F918F917F91D3
:101F60006F915F914F913F912F910F900BBE0F900A
:101F70000FBE0F901F901895CF93CFB7F894282FCE
:101F8000392F211588E0380749F461E083E00E9489
:101F9000AE0164E083E00E94AE014FC0203488E0CF
:101FA000380749F462E083E00E94AE0164E083E018
:101FB0000E94AE0142C0211589E0380749F461E072
:101FC00084E00E94AE0164E084E00E94AE0135C06E
:101FD000203489E0380749F462E084E00E94AE01D1
:101FE00064E084E00E94AE0128C021158AE0380731
:101FF00049F461E085E00E94AE0164E085E00E9462
:10200000AE011BC020348AE0380749F462E085E065
:102010000E94AE0164E085E00E94AE010EC0211571
:102020003B4049F461E086E00E94AE0164E086E056
:102030000E94AE0102C0CFBF0EC0809196278F3F95
:1020400009F4FFCF9FB7F894E5E9F7E281818F5F4C
:1020500081839FBFCFBFCF910895811528E092075C
:1020600029F460936126709362260895803428E0F5
:10207000920729F46093552670935626089581158A
:1020800029E0920729F460934D2670934E26089517
:10209000803429E0920729F4609341267093422608
:1020A000089581152AE0920729F4609339267093E8
:1020B0003A26089580342AE0920729F460932D2669
:1020C00070932E26089581159B4021F46093252658
:1020D000709326260895811122C09091902799230C
:1020E000D9F090919627911101C0FFCF2FB7F894A6
:1020F000E5E9F7E29181915091832FBF0DC0909156
:1021000096279F3F09F4FFCF2FB7F894E5E9F7E250
:1021100091819F5F91832FBF809390270895909125
:102120009027992361F3F8CF0F93E8ECF4E08081D6
:102130008F7D808380818F7D8083E4E6F7E202E0FB
:102140000593109266271092672700E2069300E439
:102150000693ECE5F7E200E2069300E40693E1EA79
:10216000F7E2148615861686178612861386109255
:102170004C270F9108950F9385E080934C27E5E657
:10218000F7E204E00593EDE5F7E204E005930F9133
:1021900008950F9383E080934C2710926627109246
:1021A0006727E4E6F7E202E006930F910895E091D5
:1021B000AD27F091AE27309709F0199508950F9348
:1021C000CF93DF9380914C27833019F4F0DFACDF9D
:1021D0005EC08091482790914927C091AB27D0914C
:1021E000AC27C81BD90B71F520914A2730914B279A
:1021F000820F931F80934A2790934B272091A72704
:102200003091A8278217930721F0809163268823B5
:1022100041F084E080934C27ECE5F7E202E006937E
:1022200036C0E091AF27F091B027309799F019951B
:10223000882381F01092482710924927C091AB273C
:10224000D091AC27C034D10528F010926326C0E4A9
:10225000D0E003C081E080936326E0E5F7E2C68B1F
:10226000D78B80914827909149272091A9273091B9
:10227000AA27280F391F208F318FC80FD91FC0936D
:102280004827D0934927E4E6F7E202E00693DF917E
:10229000CF910F910895FC018181E82FE7708E2F77
:1022A00090E0FC013197E730F105D8F48827E2503F
:1022B000FF4F8F4F0C945B1D80E190E0089580E20A
:1022C00090E0089580E490E0089580E890E008951B
:1022D00080E091E0089580E092E008958FEF93E030
:1022E000089588E090E00895282F2F7030E0220FA5
:1022F000331F082E000C990B8827990F881F9927E8
:10230000820F931F02979C01220F331F220F331F4E
:10231000220F331F820F931F8C51994D08950F93F5
:10232000CF938091CC0480FF63C081E08093CC0484
:10233000ECE5F7E200E80693E4E6F7E200E806934E
:102340008093CA04ECE5F7E200E1069380914C2704
:10235000882329F08350823008F429DFE5DE80915C
:102360005E2790915F27089709F044C088E0E8E075
:10237000F7E2A1EAB7E201900D928A95E1F7E8EC65
:10238000F4E08081806280838081806280830E940B
:102390003506C82F811103C0EEDEC1E02CC080914C
:1023A000A12788236CF410924A2710924B27109291
:1023B00048271092492782E080934C2700DF1BC0FA
:1023C0008091A7279091A827892B11F4E2DE13C0F2
:1023D00010924A2710924B271092482710924927B3
:1023E00081E080934C27ECE5F7E202E0069303C01E
:1023F000C0E001C0C1E08C2FCF910F9108958F9262
:102400009F92AF92BF92DF92EF92FF920F931F9332
:10241000CF93DF93D82E68DF8C01BD2CBB1CBB246F
:10242000BB1CCD2DCF70D0E0CC0FDD1FCB0DD11D4F
:10243000CE01880F991F880F991F880F991F9C0143
:10244000245A384D7901C90126DF4C01BB2009F41B
:102450007BC0FE01EE0FFF1FEE0FFF1FEE0FFF1FF1
:10246000E05BF84D22893389D80115968D919C91B6
:102470001697820F931F15968D939C93169713961C
:102480002D913C9114978217930709F447C0281B9C
:10249000390B2115B4E03B0740F02FEF33E0C901C1
:1024A000B4010E94341D281B390BF801808181FF83
:1024B0000AC0C901B4010E94341D41E0892B09F012
:1024C00040E0842F01C080E0D8019C9180FB91F90D
:1024D0009C93FE01EE0FFF1FEE0FFF1FEE0FFF1F7D
:1024E000E05BF84D128A138A2687378711962D9163
:1024F0003C91129715968D919C911697820F931F80
:10250000CC0FDD1FCC0FDD1FCC0FDD1FC05AD84D07
:1025100088839983F70102E00693E8C0D8018C9183
:1025200081FFD1C08D7F8C93CC0FDD1FCC0FDD1FC1
:10253000CC0FDD1FC05BD84D1A8A1B8A1E861F86F2
:10254000F70102E00693D2C0FE01EE0FFF1FEE0F6F
:10255000FF1FEE0FFF1FE05BF84DA684B784D80184
:102560008C9182FF1BC01196ED91FC9112971596EC
:102570002D913C91169713968D919C911497B401CF
:102580000E94341DB0E4DB9EB00111246C5D794DD6
:10259000AC01CF01820F931F0E94861DF801258197
:1025A00036812A0D3B1D25833683838194818217D2
:1025B000930768F485839683CC0FDD1FCC0FDD1F56
:1025C000CC0FDD1FC05BD84D8A899B897CC0FE0182
:1025D000EE0FFF1FEE0FFF1FEE0FFF1FE05BF84D2A
:1025E000428953894A155B0509F06DC028173907E0
:1025F00009F469C0AC01421B530B9A01211554E048
:10260000350758F02FEF33E0C901B4010E94341DA3
:10261000D901A81BB90BCD0108C0C901B4010E94A2
:10262000341DF901E81BF90BCF01FE01EE0FFF1F6E
:10263000EE0FFF1FEE0FFF1FE05BF84D16861786AB
:102640008815990500F5D8018C9184608C93B0E4CD
:10265000DB9EC00111248C5D994DFE01EE0FFF1F22
:10266000EE0FFF1FEE0FFF1FE05AF84D808391839E
:10267000CC0FDD1FCC0FDD1FCC0FDD1FC05BD84D95
:102680008A8A9B8A1CC0F80141815281258136814A
:10269000240F351FFE01EE0FFF1FEE0FFF1FEE0F81
:1026A000FF1FE05AF84D20833183CC0FDD1FCC0F84
:1026B000DD1FCC0FDD1FC05BD84D8A8B9B8BF701D4
:1026C00002E0069313C0D8018C9180FF0FC08E7F6B
:1026D0008C931796ED91FC911897309739F01596D9
:1026E0006D917C9116974D2D80E01995DF91CF91DA
:1026F0001F910F91FF90EF90DF90BF90AF909F9050
:102700008F900895CF93CFB7F89481E0E4DCEAECA2
:10271000F4E080E4808380E28083E1ECF4E0808177
:1027200081608083A9ECB4E08C9182608C93E8ECAA
:10273000F4E08081806480838C9181608C938081BF
:1027400080688083CFBFCF910895CF93DF93C0E699
:10275000D0E0188280E30E94BA01E0ECF4E08081CE
:102760008064808381E08883CFB7F894E0E5F7E266
:102770001586158A158E15A215A615AAE4EEF6E2A1
:1027800080818E7F8083EDEEF6E280818E7F808374
:10279000E6EFF6E280818E7F8083EFEFF6E28081C4
:1027A0008E7F80836AE170E082E00E945E098F3F45
:1027B00019F08093FA0403C08FE18093FA046BE16F
:1027C00070E082E00E945E098F3F19F08093FB0465
:1027D00003C08FE18093FB04E0ECF4E08081826031
:1027E00080838081806880838081806180838CE5A4
:1027F00097E2868397838081806280838FEF8093C6
:10280000C504E8ECF4E08081816080831092902719
:1028100080919A278F3F09F4FFCF9FB7F894E5E99D
:10282000F7E285818F5F85839FBF6CDFCFBFDF912C
:10283000CF91089580E008958093C3040895809116
:10284000C304089580918C2790918D27089580E08E
:1028500090E00895E1EAF7E28087918762877387C5
:102860000895282F2F7030E0220F331F082E000C00
:10287000990B8827990F881F9927820F931FFC01B6
:10288000EE0FFF1FEE0FFF1FEE0FFF1FE05BF84D77
:102890002585207C09F069C06370613011F018F45F
:1028A00004C020EC03C020E801C020E440385105FA
:1028B000E9F050F440325105A9F040345105A1F03F
:1028C00040315105D9F40CC0411532E0530791F065
:1028D0004F3F33E0530781F04115514079F408C070
:1028E00041E00DC042E00BC043E009C044E007C036
:1028F00045E005C046E003C047E001C040E0FC0100
:10290000EE0FFF1FEE0FFF1FEE0FFF1FE05BF84DF6
:10291000158636E03487242B2587FC01EE0FFF1F38
:10292000EE0FFF1FEE0FFF1FE05BF84D2585207CAB
:10293000203C69F4FC01EE0FFF1FEE0FFF1FEE0FAE
:10294000FF1FE05BF84D25852770273081F0880F49
:10295000991F880F991F880F991FFC01E05BF84DA4
:1029600085858062858781E0089580E0089581E013
:102970000895E82FEF70F0E0EE0FFF1F082E000C17
:10298000990B8827990F881F9927E80FF91FEE0FD9
:10299000FF1FEE0FFF1FEE0FFF1FE05BF84D858559
:1029A00082FB882780F90895282F2F7030E0A90135
:1029B000440F551F282F082E000C330B2227330FEE
:1029C000221F3327240F351FF901EE0FFF1FEE0FD3
:1029D000FF1FEE0FFF1FE05BF84D958592FF17C0BC
:1029E000220F331F220F331F220F331FF901E05B29
:1029F000F84D95859B7F958777DCFC01808180FF72
:102A000006C08E7F80830780F085E02D199581E0D8
:102A100008957F928F929F92AF92BF92CF92DF9252
:102A2000EF92FF920F931F93CF93DF93982E862EF2
:102A30006A01790159DC5C01792C771C7724771CB9
:102A4000C92DCF70D0E0CC0FDD1FC70DD11DFE0109
:102A5000EE0FFF1FEE0FFF1FEE0FFF1FE05BF84DA5
:102A60008585807C09F47DC0FE01EE0FFF1FEE0F0F
:102A7000FF1FEE0FFF1FE05BF84D8585807C803CDB
:102A800061F0FE01EE0FFF1FEE0FFF1FEE0FFF1FA5
:102A9000E05BF84D858582FD66C08FB7F894F5013F
:102AA000908190FF03C08FBF712C5EC0F5019081B3
:102AB000916090838FBFC182D282E382F4821582BB
:102AC000168207831087811006C091E0E114F1049B
:102AD00019F090E001C091E0F501808190FB81F94F
:102AE0008B7F8083772059F0CC0FDD1FCC0FDD1F4B
:102AF000CC0FDD1FC05BD84D1A8A1B8A2DC0FE018A
:102B0000EE0FFF1FEE0FFF1FEE0FFF1FE05BF84DF4
:102B10008585807C803CA1F4CE01880F991F880FA9
:102B2000991F880F991F845A984DB5DBBC01C701C6
:102B30009BD7892B29F0F50180818E7F808314C07B
:102B4000CC0FDD1FCC0FDD1FCC0FDD1FC05BD84DC0
:102B50001E861F861A8A1B8A892D51DC772473945E
:102B600003C0712C01C0712C872DDF91CF911F9173
:102B70000F91FF90EF90DF90CF90BF90AF909F901C
:102B80008F907F900895FF920F931F93CF93DF93C1
:102B9000182FF82EFF1CFF24FF1CC82FCF70D0E089
:102BA000CC0FDD1FCF0DD11D9FDBDC01FE01EE0F31
:102BB000FF1FEE0FFF1FEE0FFF1FE45AF84D02E05C
:102BC00005938C9180FF22C08E7F8C931796ED9198
:102BD000FC9118973097D1F0FF2059F0CC0FDD1FF2
:102BE000CC0FDD1FCC0FDD1FC05BD84D6A897B8900
:102BF0000AC0CC0FDD1FCC0FDD1FCC0FDD1FC05B6B
:102C0000D84D6E857F85412F81E01995DF91CF9159
:102C10001F910F91FF900895CF93C82FB4DFEC2F31
:102C2000EF70F0E0EE0FFF1F8C2FCC0F990B882771
:102C3000990F881F9927E80FF91FEE0FFF1FEE0F5E
:102C4000FF1FEE0FFF1FE05BF84D1586CF91089533
:102C50000F93E82FEF70F0E0EE0FFF1F282F082EE4
:102C6000000C330B2227330F221F3327E20FF31FF1
:102C7000EE0FFF1FEE0FFF1FEE0FFF1FDF01A05B28
:102C8000B84D1D969C911D9794601D969C93E45A97
:102C9000F84D01E0069377DF81E00F9108951F92D0
:102CA0000F920FB60F9211240BB60F920F932F9322
:102CB0003F934F935F936F937F938F939F93AF93C4
:102CC000BF93EF93FF938091CB04882334F480E883
:102CD0008093CA040E94050682C08091CB0482FFC3
:102CE00020C084E08093CA048091642786FF77C067
:102CF0008091CC0481FD73C012DB811170C0809182
:102D00004C27813011F445DA6AC0843009F067C07D
:102D1000E5E6F7E204E00593EDE5F7E204E005936C
:102D20005EC08091CB0481FF55C082E08093CA04CD
:102D300080915C2786FF53C08091CC0481FD4FC0F9
:102D4000EEDA81114CC080914C27823041F484E04E
:102D500080934C27ECE5F7E202E0069340C0833015
:102D600009F03DC0E5E6F7E204E00593EDE5F7E2A2
:102D700004E0059334C080E18093CA0481E003DF5E
:102D800081E801DF0E94DE051092C304E0E5F7E26E
:102D9000158696E0948783E48587158A948B858BC6
:102DA00088E097E2808B918BBFD919C08091CB04CA
:102DB00086FF06C080E48093CA0480E08CD90FC0EF
:102DC0008091CB0485FF0BC080E28093CA0481E030
:102DD00082D905C08091CB0484FFE8CFCCCFFF918E
:102DE000EF91BF91AF919F918F917F916F915F9183
:102DF0004F913F912F910F910F900BBE0F900FBEEF
:102E00000F901F9018951F920F920FB60F921124DA
:102E10000BB60F920F931F932F933F934F935F9394
:102E20006F937F938F939F93AF93BF93CF93DF93D2
:102E3000EF93FF938091CC0481FD03C070DA811180
:102E4000C1C082E08093CC048091C5048195880F35
:102E5000ECE5F7E2E81BF109208131812C5537427E
:102E6000369527953695279536952795822F869501
:102E700020FD02C090E001C090E8890FE82FEF70BC
:102E8000F0E0EE0FFF1F282F082E000C330B222737
:102E9000330F221F3327E20FF31FDF01AA0FBB1FDF
:102EA000AA0FBB1FAA0FBB1FA05BB84D1C969C911D
:102EB00095FF88C0EE0FFF1FEE0FFF1FEE0FFF1FE5
:102EC000E45AF84D00E20693811177C080914C27B7
:102ED000843019F46CD928D975C000915E271091FF
:102EE0005F278091AB279091AC27C0914827D09164
:102EF00049279E01200F311F8217930718F48C0178
:102F00000C1B1D0B8091A9279091AA27A80168E0AE
:102F100077E28C0F9D1FFAD5C00FD11FC0934827B1
:102F2000D09349270034110569F480914A27909184
:102F30004B278C0F9D1F2091A7273091A827821720
:102F4000930780F0E1EAF7E2C287D3870684F7852A
:102F5000E02D309729F01995811102C00CD932C0AB
:102F600018D930C08091AB279091AC27C817D907EA
:102F7000F9F4E091AF27F091B027309711F4FBD826
:102F800021C01995811102C0F6D81CC020914A2792
:102F900030914B278091482790914927820F931FAA
:102FA00080934A2790934B271092482710924927E5
:102FB000ECE5F7E202E0069305C0803811F4FFD893
:102FC00001C01DDAFF91EF91DF91CF91BF91AF91D9
:102FD0009F918F917F916F915F914F913F912F9131
:102FE0001F910F910F900BBE0F900FBE0F901F906F
:102FF000189581E08093E707E0E0F8E010A611A6BD
:1030000012A613A61092932710929427109291273C
:10301000109292270895181619064CF4E0E4F6E091
:1030200084818860848384818B7F84830AC0992310
:1030300044F4E0E4F6E08481877F848384818460C3
:103040008483CB01992324F488279927861B970B27
:10305000E0E0F8E080A791A782A793A70895EF92F8
:10306000FF920F931F93CF93DF939C017B01865AAE
:103070009F4F853B910578F5E0E4F6E0848184601C
:10308000848384818860848333237CF48B01CB0127
:103090006AE570E0FDD4269FE001279FD00D369FA2
:1030A000D00D1124CE0DDF1D1AC01216130684F4A4
:1030B000EB01CB016AE570E0EBD4269FC001279FAE
:1030C000900D369F900D11248701081B190B07C026
:1030D000EB018B0104C000E010E0C0E0D0E0F9019A
:1030E000332324F4EE27FF27E21BF30BEF36F10521
:1030F0000CF445C0A0E4B6E014968C911497877F39
:1031000014968C93149714968C9114978B7F149625
:103110008C9322394FEF3407B4F4C9018D549F4F7B
:103120008736914080F48701C7016AE570E0B0D42A
:10313000CF018A559109689FE001699FD00D789F62
:10314000D00D11241CC0C9018F56910985349105F9
:1031500080F4E701C7016AE570E09AD4C9018A5595
:103160009109689F8001699F100D789F100D1124AF
:1031700006C0E43BF10519F4E701870103C0EB3514
:10318000F1054CF022593F4F2D3D310520F400E070
:1031900010E0C0E0D0E0E0E0F8E000A711A7C2A78F
:1031A000D3A7DF91CF911F910F91FF90EF900895DA
:1031B0002F923F924F925F926F927F928F929F9247
:1031C000AF92BF92CF92DF92EF92FF921F93CF9375
:1031D000DF93CDB7DEB72897CDBFDEBF6B017C0193
:1031E000142F6091932770919427072E000C880B61
:1031F000990B23D323EC35EF48E45FE3AAD369832B
:103200007A838B839C836091912770919227072EFC
:10321000000C880B990B11D323EC35EF48E45FE3E6
:1032200098D36D837E838F83988769817A818B8120
:103230009C81D0D24B015C016D817E818F8198850C
:10324000C9D22B013C011401261A370AA7019601A5
:1032500069817A818B819C81B9D288234CF0A70146
:1032600096016D817E818F819885B0D28823C4F4C8
:10327000112309F445C05F924F929F928F92C7012C
:10328000B601A8D27F936F9384EA90E29F938F93C5
:10329000C8D466E371E0C101E2DECDBFDEBF43C04A
:1032A000A701960169817A818B819C814ED3181682
:1032B0004CF0A70196016D817E818F81988545D361
:1032C000181684F411110EC08CEB90E29F938F932B
:1032D000A8D466E371E0C1018C549F4FC0DE0F900B
:1032E0000F9021C0E0E0F8E010A611A612A613A6E8
:1032F00085EC90E29F938F9394D40F900F9013C01E
:10330000A701960169817A818B819C811ED3181651
:10331000DCF2A70196016D817E818F81988515D39E
:10332000181694F2DFCF2896CDBFDEBFDF91CF9184
:103330001F91FF90EF90DF90CF90BF90AF909F9044
:103340008F907F906F905F904F903F902F90089557
:10335000CF93DF93CDB7DEB76897CDBFDEBF0E94B6
:103360004B010E942D090F2EF7E0DF2EF02DD09299
:10337000A20000EA10E0D8011296DC9280E09BE007
:103380000E94BC0F69EF77E180E09BE00E942D1066
:10339000E0E0FBE08181887F818387EC9DE286A36A
:1033A00097A386818C7F86838681816086837894CB
:1033B0008081807F87608083F801D2820E94030928
:1033C0008FE080934006E0E2F6E08081807F80839A
:1033D000789483E082878CE0838785E08093290658
:1033E000808581708093B3278085869581708093D6
:1033F000B227808582FB882780F98093B427808557
:1034000083FB882780F98093B127E0E0F8E0808192
:103410008460808381818363818380ED97E086A3CC
:1034200097A312A613A610A611A6CE0101964C01D1
:103430000F2EFAEC6F2EF0E27F2EF02D0F2E212CA6
:10344000FBE03F2EF02D6894442443F85524539418
:103450009F928F927F926F92F7D3D10119964C92DF
:103460005092E6076FEC70E2C4014DD38C0162ED1F
:1034700070E255D30F900F900F900F90892B09F0A9
:103480003FC0A4EDB0E2BF93AF93CBD3109293278C
:103490001092942710929127109292276FEC70E26D
:1034A00080E090E030D30F900F90009709F1C12C8D
:1034B000D12C00E010E00115110519F407D37C01AF
:1034C0000BC00130110519F401D35C0105C00230B5
:1034D000110511F4FBD26C016FEC70E280E090E01A
:1034E00012D30F5F1F4F009731F7C114D10421F49D
:1034F000B501C701B4DDACCFB501C6018CDDA8CFE5
:103500006DED70E2C8010BD3892B09F0A1CF6FECF0
:1035100070E280E090E0F7D2D6D26D8B7E8B8F8BFD
:10352000988F6FEC70E280E090E0EDD2CFD2452D25
:10353000892B09F440E06D897E898F89988D38DE6A
:1035400087CF1F920F920FB60F9211240BB60F92D6
:103550002F933F938F939F93EF93FF93E0E2F6E0D7
:10356000908591708085869581702091B327222364
:1035700009F43EC02091B2272223E9F0992369F093
:10358000811171C0209193273091942721503109E6
:10359000209393273093942766C0882309F463C04F
:1035A00020919327309194272F5F3F4F20939327AB
:1035B0003093942758C091110DC0811154C02091AF
:1035C00093273091942721503109209393273093EA
:1035D000942749C0882309F446C02091932730914D
:1035E00094272F5F3F4F20939327309394273BC01E
:1035F0002091B2272223E1F0992369F0882399F1E1
:1036000020919327309194272150310920939327BB
:103610003093942728C0811126C0209193273091A0
:1036200094272F5F3F4F20939327309394271BC0FD
:1036300091110DC08823B9F02091932730919427E0
:103640002150310920939327309394270CC0811186
:103650000AC020919327309194272F5F3F4F2093EA
:103660009327309394278093B227FF91EF919F91F6
:103670008F913F912F910F900BBE0F900FBE0F9027
:103680001F9018951F920F920FB60F9211240BB630
:103690000F922F933F938F939F93EF93FF93E0E2CB
:1036A000F6E0908592FB992790F9808583FB882727
:1036B00080F92091B427222309F43EC02091B1273C
:1036C0002223E9F0992369F0811171C0209191279B
:1036D000309192272F5F3F4F20939127309392276D
:1036E00066C0882309F463C0209191273091922706
:1036F00021503109209391273093922758C091117E
:103700000DC0811154C020919127309192272F5FD5
:103710003F4F209391273093922749C0882309F483
:1037200046C0209191273091922721503109209352
:103730009127309392273BC02091B1272223E1F0BB
:10374000992369F0882399F120919127309192274C
:103750002F5F3F4F209391273093922728C08111EC
:1037600026C0209191273091922721503109209332
:103770009127309392271BC091110DC08823B9F077
:1037800020919127309192272F5F3F4F20939127CF
:10379000309392270CC081110AC02091912730915B
:1037A00092272150310920939127309392278093BB
:1037B000B127FF91EF919F918F913F912F910F90A2
:1037C0000BBE0F900FBE0F901F90189571D008F48C
:1037D00081E0089504D06894B111B1C0089594D0E7
:1037E00088F09F5790F0B92F9927B751A0F0D1F0EA
:1037F000660F771F881F991F1AF0BA95C9F712C074
:10380000B13081F09BD0B1E0089598C0672F782F38
:103810008827B85F39F0B93FCCF3869577956795DF
:10382000B395D9F73EF490958095709561957F4F4B
:103830008F4F9F4F0895E89409C097FB3EF49095F1
:103840008095709561957F4F8F4F9F4F9923A9F079
:10385000F92F96E9BB279395F69587957795679508
:10386000B795F111F8CFFAF4BB0F11F460FF1BC04C
:103870006F5F7F4F8F4F9F4F16C0882311F096E9DF
:1038800011C0772321F09EE8872F762F05C066238D
:1038900071F096E8862F70E060E02AF09A95660F46
:1038A000771F881FDAF7880F9695879597F90895FF
:1038B000990F0008550FAA0BE0E8FEEF1616170641
:1038C000E807F907C0F012161306E407F50798F0A9
:1038D000621B730B840B950B39F40A2661F0232BC2
:1038E000242B252B21F408950A2609F4A140A6953E
:1038F0008FEF811D811D089557FD9058440F551F6E
:1039000059F05F3F71F04795880F97FB991F61F061
:103910009F3F79F087950895121613061406551FD8
:10392000F2CF4695F1DF08C0161617061806991F44
:10393000F1CF86957105610508940895E894BB2739
:1039400066277727CB0197F90895B2DF08F48FEF48
:1039500008950BD078C069D028F06ED018F0952368
:1039600009F05AC05FC01124EACFC6DFA0F3959FCB
:10397000D1F3950F50E0551F629FF001729FBB2756
:10398000F00DB11D639FAA27F00DB11DAA1F649F02
:103990006627B00DA11D661F829F2227B00DA11DB5
:1039A000621F739FB00DA11D621F839FA00D611D3B
:1039B000221F749F3327A00D611D231F849F600D5C
:1039C000211D822F762F6A2F11249F5750408AF095
:1039D000E1F088234AF0EE0FFF1FBB1F661F771F21
:1039E000881F91505040A9F79E3F510570F014C0B8
:1039F000A6CF5F3FECF3983EDCF38695779567950D
:103A0000B795F795E7959F5FC1F7FE2B880F911D3E
:103A10009695879597F9089597F99F6780E870E0E4
:103A200060E008959FEF80EC089500240A94161634
:103A3000170618060906089500240A94121613069C
:103A4000140605060895092E0394000C11F488232A
:103A500052F0BB0F40F4BF2B11F460FF04C06F5F46
:103A60007F4F8F4F9F4F0895AA1BBB1B51E107C08B
:103A7000AA1FBB1FA617B70710F0A61BB70B881FFE
:103A8000991F5A95A9F780959095BC01CD0108958D
:103A900097FB072E16F4009406D077FD08D0E4DFDC
:103AA00007FC05D03EF4909581959F4F0895709541
:103AB00061957F4F0895EE0FFF1F881F8BBF079002
:103AC000F691E02D199466277727C1C6FC01882757
:103AD0009927E89421912032E9F3293010F02E3013
:103AE000C8F32B3239F02D3231F4689403C047D03B
:103AF000820F911D219120532A30C8F31EF4909516
:103B000081959F4F089540EE50E212C0FB01DC0109
:103B100002C001900D9241505040D8F70895FB012A
:103B2000DC018D91019080190110D9F3990B089552
:103B3000FA01A191B081009719F41097E1F0CD013D
:103B4000DC01CD010D90002011F4C00113C0FB0178
:103B50002191222319F02015D9F7F3CFFB012191F0
:103B6000201519F41E92119606C02223C1F70D905C
:103B70000020A1F7D001FA01A193B08308957AE063
:103B8000979F902D879F802D910D112408950F935D
:103B90001F93CF93DF93009731F46115710519F4EA
:103BA00080E090E039C08B01EC016EE070E081E0D4
:103BB00090E006D5FC01892B99F380E883830115F9
:103BC000110571F00287138781E883838091B527FF
:103BD0009091B627892B21F4E093B527F093B6276F
:103BE0002097C9F0C087D1878381826083838091C9
:103BF000B7279091B827892B71F4E093B727F093FA
:103C0000B8278091B9279091BA27892B21F4E093A6
:103C1000B927F093BA27CF01DF91CF911F910F9170
:103C20000895CF93DF93CDB7DEB7AE014A5F5F4F04
:103C3000FA0161917191AF018091B7279091B827F6
:103C400016D0DF91CF910895CF93DF93CDB7DEB734
:103C5000AE014A5F5F4FFA0161917191AF018091AE
:103C6000B5279091B6278CD3DF91CF9108952F92ED
:103C70003F924F925F926F927F928F929F92AF92FC
:103C8000BF92CF92DF92EF92FF920F931F93CF9349
:103C9000DF93CDB7DEB72C97CDBFDEBF7C016B01C4
:103CA0008A01FC0116821782838181FFB0C1CE0197
:103CB00001964C01F7019381F60193FD859193FFE5
:103CC00081916F01882309F49EC1853239F493FDF7
:103CD000859193FF81916F01853221F4B70190E0C6
:103CE000A6D7E8CF512C312C20E02032A0F48B3223
:103CF00069F030F4803259F0833269F420612CC0CD
:103D00008D3239F0803339F4216026C0226024607E
:103D100023C0286021C027FD27C030ED380F3A307E
:103D200078F426FF06C0FAE05F9E300D1124532E72
:103D300013C08AE0389E300D1124332E20620CC04F
:103D40008E3221F426FD5FC1206406C08C3611F44A
:103D5000206802C0883641F4F60193FD859193FFF7
:103D600081916F018111C1CF982F9F7D9554933020
:103D700028F40C5F1F4FFFE3F9830DC0833631F049
:103D8000833771F0833509F057C021C0F801808175
:103D900089830E5F1F4F44244394512C540114C057
:103DA0003801F2E06F0E711CF801A080B18026FF8F
:103DB00003C0652D70E002C06FEF7FEFC5012C8757
:103DC000EDD62C0183012C852F77222E16C03801C9
:103DD000F2E06F0E711CF801A080B18026FF03C0D5
:103DE000652D70E002C06FEF7FEFC5012C87C4D650
:103DF0002C012C852068222E830123FC19C0832DE1
:103E000090E048165906A0F4B70180E290E00FD781
:103E10003A94F5CFF50127FC859127FE81915F014A
:103E2000B70190E004D731103A94F1E04F1A5108ED
:103E30004114510479F7DEC0843611F0893631F52A
:103E4000F80127FF07C060817181828193810C5F37
:103E50001F4F08C060817181072E000C880B990BE1
:103E60000E5F1F4F2F76722E97FF09C09095809599
:103E7000709561957F4F8F4F9F4F2068722E2AE07B
:103E800030E0A40125D7A82EA81843C0853729F40F
:103E90002F7EB22E2AE030E025C0F22FF97FBF2E10
:103EA0008F36C1F018F4883579F0ADC0803719F03D
:103EB000883721F0A8C02F2F2061B22EB4FE0DC08C
:103EC0008B2D8460B82E09C024FF0AC09F2F9660F6
:103ED000B92E06C028E030E005C020E130E002C085
:103EE00020E132E0F801B7FE07C060817181828174
:103EF00093810C5F1F4F06C06081718180E090E06C
:103F00000E5F1F4FA401E4D6A82EA818FB2DFF7743
:103F10007F2E76FE0BC0372D3E7FA51450F474FE25
:103F20000AC072FC08C0372D3E7E05C0BA2C372D62
:103F300003C0BA2C01C0B52C34FF0DC0FE01EA0D40
:103F4000F11D8081803311F4397E09C032FF06C033
:103F5000B394B39404C0832F867809F0B39433FDEF
:103F600012C030FF06C05A2CB31418F4530C5B185F
:103F7000B32CB31460F4B70180E290E03C8757D6CD
:103F8000B3943C85F6CFB31410F43B1801C0312C28
:103F900034FF11C0B70180E390E03C8748D63C85F0
:103FA00032FF16C031FD03C088E790E002C088E50B
:103FB00090E0B7010CC0832F867851F031FF02C02A
:103FC0008BE201C080E237FD8DE2B70190E02FD691
:103FD000A51430F4B70180E390E029D65A94F8CFC5
:103FE000AA94F401EA0DF11D8081B70190E01FD67B
:103FF000A110F6CF332009F45DCEB70180E290E046
:1040000016D63A94F7CFF7018681978102C08FEFD9
:104010009FEF2C96CDBFDEBFDF91CF911F910F9107
:10402000FF90EF90DF90CF90BF90AF909F908F90D8
:104030007F906F905F904F903F902F90089520FD5C
:1040400009C0FC0123FD05C022FF02C07383628307
:1040500051834083089544FD10C046FD10C0DB012C
:10406000FC01AA0FBB1FEE1FFF1F1094D1F76A0FB0
:104070007B1F8E1F9F1F31E003C033E001C034E07F
:10408000660F771F881F991F3150D1F7620F711D7E
:10409000811D911D08950F931F93CF93DF938C0182
:1040A000C80187D5EC0197FD06C03BD5892BC1F728
:1040B000B801CE01F4D5CE01DF91CF911F910F91C0
:1040C00008958F929F92AF92BF92CF92DF92EF921C
:1040D000FF920F931F93CF93DF931F92CDB7DEB75D
:1040E0008C01C62E7A01298364D5AC01552729811C
:1040F0004B32510521F04D32510561F42068CA94CC
:10410000C11002C080E06FC0C801298352D5298147
:1041100097FDF8CF322F3D7FD32E322F307339F5F4
:10412000803329F5BB24BA94BC0C09F449C0C801FA
:1041300029833FD5298197FD43C0382F3F7D3835EE
:1041400061F48D2D8264D82ECA94CA94CC20C1F11A
:10415000C8012FD597FF0BC033C026FF04C02D2DFB
:104160002260D22E03C03D2D3261D32ECB2C812C68
:10417000912C540120ED280F283078F0D4FE03C094
:10418000B8018DD51AC02A3040F0D6FEF9CF2F7D68
:104190003FEE320F3630A0F727504D2DC501B40148
:1041A0005ADF4B015C018D2D8260D82ECA94CC2041
:1041B00051F0C801FED497FFDDCFD1FC04C0A2CFDF
:1041C000812C912C5401D7FE08C0B094A0949094F7
:1041D0008094811C911CA11CB11C2D2DB501A40142
:1041E000C7012DDF81E00F90DF91CF911F910F91DB
:1041F000FF90EF90DF90CF90BF90AF909F908F9007
:1042000008956F927F928F929F92AF92BF92CF92BA
:10421000DF92EF92FF920F931F93CF93DF93CDB76F
:10422000DEB7A197CDBFDEBF5C017A01CE0101965A
:104230006C0180E2F60111928A95E9F7F50183801D
:1042400040E050E0912C712C70E0A1E0B0E0F90169
:1042500083FC859183FE81918F01982F9F018111AD
:1042600003C080E090E07AC08E3519F44115510505
:1042700049F1E72FF0E0E417F5073CF48D3559F1EB
:104280008D3219F4772001F103C0711001C0982E0E
:10429000892F8695869586958601080F111D892F91
:1042A00087703D0101C0660C8A95EAF7F8018081AC
:1042B00086298083991559F0991510F49F5FE8CFEE
:1042C0009150E6CF71E004C07724739401C0712C43
:1042D0004F5F5F4FBCCF772019F08E8180628E8355
:1042E000711103C09924939416C0F6019E012F5DAD
:1042F0003F4F808180958193E217F307D1F7F2CF8A
:10430000E114F10429F0F7018083C70101967C01D3
:104310006150912CE9F0C50169A34BD469A197FDC7
:1043200015C0282F269526952695F601E20FF11D3A
:10433000208130E0AC014770552702C035952795A4
:104340004A95E2F720FDDCCFB501A9D4911089CFC1
:10435000E114F10411F0F7011082C801A196CDBF5C
:10436000DEBFDF91CF911F910F91FF90EF90DF9013
:10437000CF90BF90AF909F908F907F906F90089557
:104380004F925F927F928F929F92AF92BF92CF9205
:10439000DF92EF92FF920F931F93CF93DF931F92C1
:1043A000CDB7DEB76C012B015A01FC0116821782D2
:1043B000712CF601F380F201F3FC8591F3FE8191FB
:1043C000382F2F01882309F4E5C090E03983A9D361
:1043D0003981892B19F0C6015EDEEBCF353241F40D
:1043E000F201F3FC3591F3FE31912F01353259F48E
:1043F000C6013983DED3398197FDCAC03817C9F2A7
:10440000B6014DD4C7C03A3239F4F3FC3591F3FE0E
:1044100031912F0151E001C050E0420110E020ED48
:10442000230F2A3088F45260612F70E080E090E022
:1044300040E2598310DE162FF401F3FC3591F3FEB0
:1044400031914F015981EBCF052F232F240151FFCB
:1044500003C0111102C09EC01FEF383619F03C3660
:1044600059F011C0F401F3FC2591F3FE21912F01C5
:10447000283649F4052F08600460F201F3FC259109
:10448000F3FE21912F01222309F484C0622F70E0F2
:104490008AE092E029834DD32981892B09F47AC0DF
:1044A00000FD07C0F501E080F180C50102965C01C6
:1044B00002C0E12CF12C2E3649F4F60146815781D9
:1044C00060E070E0202FC701BADD73CF233689F496
:1044D00001FF11E0C6016DD397FD5AC0E114F1044C
:1044E00029F0F7018083C70101967C01115091F7F3
:1044F0004BC02B3551F49201A701612FC60181DE1B
:104500002C01892B09F040C03AC0C6012983C3DDC4
:10451000298197FD3DC02F3641F128F4243619F149
:10452000293631F124C0233769F02537E1F01FC067
:10453000E114F10429F0F7018082C70101967C01A2
:10454000115059F0C60135D34C0197FD06C0E9D290
:10455000892B71F3B601C401A2D3E114F104A1F0D7
:10456000F701108211C0006203C0006101C0006445
:10457000202FA701612FC601A4DD811105C0F6011E
:104580008381807329F406C000FD13CF739411CF8B
:10459000772019F0872D90E002C08FEF9FEF0F90EA
:1045A000DF91CF911F910F91FF90EF90DF90CF900F
:1045B000BF90AF909F908F907F905F904F900895A5
:1045C0000F931F93CF93DF93869F8001879F100DDA
:1045D000969F100D1124C8010DD0EC01009721F019
:1045E000A80160E070E0D3D2CE01DF91CF911F919E
:1045F0000F910895CF93DF938230910510F482E0FC
:1046000090E0E091BD27F091BE2720E030E0C0E0CF
:10461000D0E0309711F14081518148175907C0F01F
:104620004817590761F482819381209719F08A8392
:104630009B832BC08093BD279093BE2726C0211556
:10464000310519F04217530718F49A01BE01DF0132
:10465000EF010280F381E02DDCCF2115310509F156
:10466000281B390B2430310590F412968D919C91C2
:1046700013976115710521F0FB018283938304C0B8
:104680008093BD279093BE27FD01329644C0FD0163
:10469000E20FF31F81939193225031092D933C93A4
:1046A0003AC02091BB273091BC27232B41F42091A5
:1046B0000220309103202093BB273093BC27209108
:1046C0000020309101202115310541F42DB73EB76E
:1046D0004091042050910520241B350BE091BB270D
:1046E000F091BC27E217F307A0F42E1B3F0B28170D
:1046F000390778F0AC014E5F5F4F2417350748F05B
:104700004E0F5F1F4093BB275093BC27819391931B
:1047100002C0E0E0F0E0CF01DF91CF9108950F9368
:104720001F93CF93DF93009709F48CC0FC0132975D
:10473000128213820091BD271091BE270115110529
:1047400081F420813181820F931F2091BB2730910A
:10475000BC272817390779F5E093BB27F093BC27CE
:1047600071C0D80140E050E0AE17BF0750F4129678
:104770002D913C911397AD012115310509F1D90116
:10478000F3CF9D01DA012283338360817181860F2B
:10479000971F8217930769F4EC0128813981260F4E
:1047A000371F2E5F3F4F208331838A819B81828315
:1047B0009383452B29F4E093BD27F093BE2742C095
:1047C0001296ED93FC931397ED01499159919E0137
:1047D000240F351FE217F30771F480819181840F54
:1047E000951F02968D939C931197828193811296C7
:1047F0008D939C931397E0E0F0E0D80112968D9191
:104800009C911397009719F0F8018C01F6CF8D91C8
:104810009C9198012E5F3F4F820F931F2091BB27E1
:104820003091BC272817390769F4309729F4109282
:10483000BD271092BE2702C0128213820093BB27AD
:104840001093BC27DF91CF911F910F9108956F9224
:104850007F928F929F92AF92BF92CF92DF92EF9210
:10486000FF920F931F93CF93DF93EC017B016115B0
:10487000710519F0DB018D939C938E010F5F1F4F23
:104880007880872D90E04DD1892B11F0E801F5CF8C
:10489000BDE27B1205C00F5F1F4F7980C1E008C0E9
:1048A000EBE27E1204C08E010E5F1F4F7980C0E0E4
:1048B0006801F1E0CF1AD10843E050E06EE172E008
:1048C000C60142D1892BE9F4680122E0C20ED11C55
:1048D00045E050E069E172E0C60136D1892B21F450
:1048E000680187E0C80ED11CE114F10419F0D7016A
:1048F000CD92DC92C111FDC060E070E080E89FE7DE
:1049000001C143E050E066E172E0C6011DD1892B90
:1049100051F4E114F10409F4F1C00E5F1F4FF701E7
:1049200000831183EBC0680160E070E0CB0100E020
:1049300010E0F601D0EDD70DDA3050F52C2F2260C3
:10494000622E2C2F2870C2FF05C0211127C00F5FD7
:104950001F4F24C0222311F001501109A5E0B0E03F
:104960009B01AC0116D24B015C01880C991CAA1C5E
:10497000BB1CC501B4016D0F711D811D911D6839EE
:10498000A9E97A078A07A9E19A0740F0C66005C03D
:10499000DE3F51F4C3FD44C0C8606C2EBFEFCB1A9C
:1049A000DB0A7080C62DC5CF2D2F2F7D2531C1F597
:1049B00040814D3211F4C06106C04B3221F0319676
:1049C00021E030E006C03296D60111964C9122E0EB
:1049D00030E0A0EDA40FAA3018F0E21BF30B20C0CA
:1049E00040E050E04038BCE05B075CF49A01220FE5
:1049F000331F220F331F420F531F440F551F4A0FFF
:104A0000511D3196DF0111972C91A0EDA20FAA3014
:104A100048F3C4FF03C0519541955109040F151F78
:104A2000C1FF07C0E114F10421F03197D701ED93E4
:104A3000FC930E941B1CC370C33019F06B017C01F6
:104A400006C06B017C01F7FAF094F7F8F09420E0CF
:104A500030E0A901C701B6010E94E61B882309F4D2
:104A600045C017FF06C0119501951109C5E3D2E0B5
:104A700002C0CDE4D2E05E01B8E1AB1AB108460154
:104A8000BE2DAF2D90E2E92EF12C0E151F0584F0FE
:104A9000FE012591359145915491B4018B2F9A2FA8
:104AA0000E94A91C4B01B82FA92F0E191F09EDCF89
:104AB0002497F594E794CA15DB0539F76401EB2ECA
:104AC000FA2E8E2D880F8F2D881F8F3F49F020E002
:104AD00030E0A901C701B6010E94E61B811106C0A2
:104AE00082E290E08093BF279093C027C701B60170
:104AF00009C060E070E080E89FEF04C060E070E013
:104B000080EC9FE7DF91CF911F910F91FF90EF9085
:104B1000DF90CF90BF90AF909F908F907F906F90DD
:104B20000895911133C1803219F089508550D0F722
:104B30000895FC010590061621F00020D9F7C00168
:104B400008953197CF010895FB01DC014150504099
:104B500088F08D9181341CF08B350CF4805E65916A
:104B600061341CF06B350CF4605E861B611171F3CF
:104B7000990B0895881BFCCFFC0105906150704093
:104B80000110D8F7809590958E0F9F1F0895DC0136
:104B900001C06D9341505040E0F70895FC01615011
:104BA000704001900110D8F7809590958E0F9F1F4F
:104BB0000895CF93DF93EC012B8120FF33C026FFB4
:104BC0000AC02F7B2B838E819F8101968E839F83CA
:104BD0008A8190E029C022FF0FC0E881F98180819D
:104BE000082E000C990B009719F420622B831AC031
:104BF0003196E883F9830EC0EA85FB85199597FF06
:104C000009C02B81019611F080E201C080E1822B66
:104C10008B8308C02E813F812F5F3F4F2E833F83C0
:104C2000992702C08FEF9FEFDF91CF9108950F93E7
:104C30001F93CF93DF93FB01238121FD03C08FEFEF
:104C40009FEF28C022FF16C04681578124813581FD
:104C50004217530744F4A081B1819D012F5F3F4F5C
:104C6000208331838C93268137812F5F3F4F2683AA
:104C7000378310C0EB01092F182F0084F185E02D38
:104C80001995892BE1F68E819F8101968E839F83F2
:104C9000812F902FDF91CF911F910F910895FB01EC
:104CA000238120FF12C026FD10C08F3F3FEF9307E6
:104CB00061F082832F7D20642383268137812150F8
:104CC000310926833783992708958FEF9FEF089541
:104CD000FA01AA27283051F1203181F1E8946F932D
:104CE0006E7F6E5F7F4F8F4F9F4FAF4FB1E03ED0D3
:104CF000B4E03CD0670F781F891F9A1FA11D680F71
:104D0000791F8A1F911DA11D6A0F711D811D911DA3
:104D1000A11D20D009F468943F912AE0269F112418
:104D20003019305D3193DEF6CF010895462F47707C
:104D3000405D4193B3E00FD0C9F7F6CF462F4F70D7
:104D4000405D4A3318F0495D31FD4052419302D035
:104D5000A9F7EACFB4E0A6959795879577956795DB
:104D6000BA95C9F700976105710508959B01AC01DB
:104D70000A2E06945795479537952795BA95C9F702
:104D8000620F731F841F951FA01D08959927882700
:104D9000089509D0A59F900DB49F900DA49F800DFC
:104DA000911D11240895A29FB001B39FC001A39F3C
:104DB000700D811D1124911DB29F700D811D112454
:084DC000911D0895F894FFCF46
:104DC8000000C1272000CB0360031F0221025D03FE
:104DD8006E0219022302210200006C20202000002C
:104DE800282024201020062009024300020100C0C8
:104DF8003209040000010202010005240010010428
:104E08002402020524060001052401030107058286
:104E18000340001009040100020A00000007058190
:104E280002400000070502024000000012010002D3
:104E380002000040EB03042400010102000100030A
:104E4800000000000000000000000000000000005A
:104E580000004344430041544D454C204153460013
:104E6800040309044D4F56494E473A202569207CD2
:104E7800202569207C202569200A0D004D4F5649C0
:104E88004E470A0D00444F4E450025313973007CCA
:104E98000A0044004469726563740A0D00540000F6
:00000001FF
